:100000000C9434000C943E000C943E000C943E0082
:100010000C943E000C943E000C943E000C943E0068
:100020000C943E000C943E000C943E000C943E0058
:100030000C943E000C943E000C943E000C943E0048
:100040000C943E000C943E000C943E000C943E0038
:100050000C943E000C943E000C943E000C943E0028
:100060000C943E000C943E0011241FBECFEFD8E04C
:10007000DEBFCDBF0E9476010C9426030C940000D5
:10008000CF93DF93CDB7DEB7A1970FB6F894DEBF5D
:100090000FBECDBF9E8F8D8F6F8F59A348A38D8DBF
:1000A0009E8DFC018081482F8F8D282F30E081E0CC
:1000B00090E002C0880F991F2A95E2F7842B282F21
:1000C0008D8D9E8DFC01208388A199A1CC01A0E09B
:1000D000B0E0BC01CD010E940202DC01CB018983AA
:1000E0009A83AB83BC8320E030E04AE755E4698122
:1000F0007A818B819C810E949102DC01CB018B8BE8
:100100009C8BAD8BBE8B20E030E040E85FE36B89D9
:100110007C898D899E890E94CE0188232CF481E000
:1001200090E0988F8F8B3FC020E03FEF4FE757E480
:100130006B897C898D899E890E948C0218164CF5EA
:1001400020E030E040E251E469817A818B819C813A
:100150000E949102DC01CB01BC01CD010E94D301C0
:10016000DC01CB01988F8F8B0FC080E991E09A8FD3
:10017000898F898D9A8D0197F1F79A8F898F8F8951
:10018000988D0197988F8F8B8F89988D892B69F720
:1001900014C06B897C898D899E890E94D301DC0102
:1001A000CB01988F8F8B8F89988D9C8F8B8F8B8DA8
:1001B0009C8D0197F1F79C8F8B8F8D8D9E8DFC010F
:1001C0008081482F8F8D282F30E081E090E002C0A1
:1001D000880F991F2A95E2F780958423282F8D8D0B
:1001E0009E8DFC01208388A199A1CC01A0E0B0E004
:1001F000BC01CD010E940202DC01CB018D839E83F4
:10020000AF83B88720E030E04AE755E46D817E8116
:100210008F8198850E949102DC01CB0189879A87A2
:10022000AB87BC8720E030E040E85FE369857A85F2
:100230008B859C850E94CE0188232CF481E090E080
:100240009E878D873FC020E03FEF4FE757E46985E9
:100250007A858B859C850E948C0218164CF520E0CF
:1002600030E040E251E46D817E818F8198850E946B
:100270009102DC01CB01BC01CD010E94D301DC0164
:10028000CB019E878D870FC080E991E0988B8F8787
:100290008F8598890197F1F7988B8F878D859E853B
:1002A00001979E878D878D859E85892B69F714C060
:1002B00069857A858B859C850E94D301DC01CB0101
:1002C0009E878D878D859E859A8B898B89899A8952
:1002D0000197F1F79A8B898B0000A1960FB6F894DD
:1002E000DEBF0FBECDBFDF91CF910895CF93DF93D7
:1002F0001F92CDB7DEB784E290E024E230E0F9014E
:1003000020812F62FC01208387E290E027E230E029
:10031000F90120812760FC01208319820AC04EE187
:1003200050E060E085E290E00E94400089818F5FAC
:10033000898389818A3098F348EC50E060E088E254
:1003400090E00E94400048EC50E061E088E290E0DC
:100350000E94400048EC50E062E088E290E00E9499
:1003600040004CE251E063E085E290E00E944000F2
:100370004CE251E062E085E290E00E9440004CE2F5
:1003800051E061E085E290E00E94400044EF51E0DE
:1003900065E085E290E00E944000BFCF0E943F02EE
:1003A00008F481E008950E946B0288F09F5798F04E
:1003B000B92F9927B751B0F0E1F0660F771F881F6A
:1003C000991F1AF0BA95C9F714C0B13091F00E9484
:1003D0008502B1E008950C948502672F782F882755
:1003E000B85F39F0B93FCCF3869577956795B395AB
:1003F000D9F73EF490958095709561957F4F8F4F1A
:100400009F4F0895E89409C097FB3EF4909580951E
:10041000709561957F4F8F4F9F4F9923A9F0F92FCA
:1004200096E9BB279395F695879577956795B79548
:10043000F111F8CFFAF4BB0F11F460FF1BC06F5F2E
:100440007F4F8F4F9F4F16C0882311F096E911C040
:10045000772321F09EE8872F762F05C0662371F061
:1004600096E8862F70E060E02AF09A95660F771F75
:10047000881FDAF7880F9695879597F90895990F51
:100480000008550FAA0BE0E8FEEF16161706E8075E
:10049000F907C0F012161306E407F50798F0621B7F
:1004A000730B840B950B39F40A2661F0232B242B54
:1004B000252B21F408950A2609F4A140A6958FEF73
:1004C000811D811D089557FD9058440F551F59F007
:1004D0005F3F71F04795880F97FB991F61F09F3F31
:1004E00079F087950895121613061406551FF2CF5A
:1004F0004695F1DF08C0161617061806991FF1CFAA
:1005000086957105610508940895E894BB276627D0
:100510007727CB0197F908950E943F0208F48FEFE7
:1005200008950E94A4020C9415030E94070338F05A
:100530000E940E0320F0952311F00C94FE020C94FF
:10054000040311240C9486020E94630270F3959FA9
:10055000C1F3950F50E0551F629FF001729FBB27BA
:10056000F00DB11D639FAA27F00DB11DAA1F649F56
:100570006627B00DA11D661F829F2227B00DA11D09
:10058000621F739FB00DA11D621F839FA00D611D8F
:10059000221F749F3327A00D611D231F849F600DB0
:1005A000211D822F762F6A2F11249F5750409AF0D9
:1005B000F1F088234AF0EE0FFF1FBB1F661F771F65
:1005C000881F91505040A9F79E3F510580F00C9430
:1005D000FE020C9486025F3FE4F3983ED4F38695C6
:1005E00077956795B795F795E7959F5FC1F7FE2BD0
:1005F000880F911D9695879597F9089597F99F67AC
:1006000080E870E060E008959FEF80EC089500249A
:100610000A941616170618060906089500240A9467
:1006200012161306140605060895092E0394000CED
:1006300011F4882352F0BB0F40F4BF2B11F460FF7C
:1006400004C06F5F7F4F8F4F9F4F0895F894FFCF87
:00000001FF
